:03000000020100FA
:1001000075A8007580FF75900075B0FFC2A0C2A2EF
:10011000D2A1D2A3D2A4D2A5D2A6D2A7D2B77438E4
:10012000120894740C1208941208AD120146C220F1
:10013000D22275F0581208B81201DD12015A60F887
:10014000120205020138780079007A007B007C00F9
:100150007D007E007F0075820022D2A1D2A3D2A4AE
:10016000D2A5D2A6D2A7C2A11201D630A52B30A605
:100170002D30A72FD2A1C2A31201D630A52A30A6B6
:100180002C30A72ED2A3C2A41201D630A52930A6A6
:100190002B30A72DD2A474002274010201C3740273
:1001A0000201C374030201C374040201C374050293
:1001B00001C374060201C374070201C3740802017B
:1001C000C374091201D6D2A1D2A3D2A430A5F730AC
:1001D000A6F430A7F12275301ED530FD222022056D
:1001E000A2B792222220B7F81201D620B7F2B2208D
:1001F00012014675F0581207F81208B830B7FD1210
:1002000001D60201E0B40108B80060A8F002027251
:10021000B40208B90055A9F0020272B40308BA008A
:100220004AAAF0020272B40408BB003FABF002021B
:1002300072B40508BC0034ACF0020272B40608BD0A
:100240000029ADF0020272B40708BE001EAEF00233
:100250000272B40808BF0013AFF0020272B4093B87
:10026000E582B4000685F0820202721207C6120807
:10027000B822E5F0B4580675F04F02028075F058C8
:100280001207F81208B81205EA20200122E5F0B49E
:100290004F0912029C1208B81205EA22C221B84F77
:1002A0000DB94F0ABA00077A4FD2210205E2B84FC2
:1002B0000DBA4F0AB90007794FD2210205E2B94FB2
:1002C0000DBA4F0AB80007784FD2210205E2BB4FA2
:1002D0000DBC4F0ABD00077D4FD2210205E2BB4F86
:1002E0000DBD4F0ABC00077C4FD2210205E2BC4F76
:1002F0000DBD4F0ABB00077B4FD2210205E2E5820C
:10030000BE4F0EBF4F0BB4000875824FD2210205BD
:10031000E2E582BE4F0DB44F0ABF00077F4FD221E6
:100320000205E2E582BF4F0DB44F0ABE00077E4FC3
:10033000D2210205E2B84F0DBB4F0ABE00077E4F27
:10034000D2210205E2B84F0DBE4F0ABB00077B4F1A
:10035000D2210205E2BB4F0DBE4F0AB80007784F0D
:10036000D2210205E2B94F0DBC4F0ABF00077F4FF3
:10037000D2210205E2B94F0DBF4F0ABC00077C4FE6
:10038000D2210205E2BC4F0DBF4F0AB90007794FD9
:10039000D2210205E2E582BA4F0EBD4F0BB4000830
:1003A00075824FD2210205E2E582BA4F0DB44F0AA1
:1003B000BD00077D4FD2210205E2E582BD4F0DB49D
:1003C0004F0ABA00077A4FD2210205E2E582B84F00
:1003D0000EBC4F0BB4000875824FD2210205E2E536
:1003E00082B84F0DB44F0ABC00077C4FD2210205E2
:1003F000E2BC4F0FB8000CE582B44F07784FD22112
:100400000205E2BA4F0DBC4F0ABE00077E4FD22153
:100410000205E2B8580DB9580ABA00077A4FD2213E
:100420000205E2B8580DBA580AB90007794FD2212F
:100430000205E2B9580DBA580AB80007784FD22120
:100440000205E2BB580DBC580ABD00077D4FD22102
:100450000205E2BB580DBD580ABC00077C4FD221F3
:100460000205E2BC580DBD580ABB00077B4FD221E4
:100470000205E2E582BE580EBF580BB40008758233
:100480004FD2210205E2E582BE580DB4580ABF00E2
:10049000077F4FD2210205E2E582BF580DB4580A0A
:1004A000BE00077E4FD2210205E2B8580DBB580AA4
:1004B000BE00077E4FD2210205E2B8580DBE580A91
:1004C000BB00077B4FD2210205E2BB580DBE580A84
:1004D000B80007784FD2210205E2B9580DBC580A7E
:1004E000BF00077F4FD2210205E2B9580DBF580A5D
:1004F000BC00077C4FD2210205E2BC580DBF580A50
:10050000B90007794FD2210205E2E582BA580EBD43
:10051000580BB4000875824FD2210205E2E582BA79
:10052000580DB4580ABD00077D4FD2210205E2E5FF
:1005300082BD580DB4580ABA00077A4FD22102057D
:10054000E2E582B8580EBC580BB4000875824FD251
:10055000210205E2E582B8580DB4580ABC00077CB8
:100560004FD2210205E2BC580FB8000CE582B45806
:1005700007784FD2210205E2BA580DBC580ABE00D6
:10058000077E4FD2210205E2BC00077C4FD2210238
:1005900005E2B80007784FD2210205E2BA00077AD7
:1005A0004FD2210205E2BE00077E4FD2210205E2B2
:1005B000E582B4000875824FD2210205E2B9000736
:1005C000794FD2210205E2BB00077B4FD221020501
:1005D000E2BD00077D4FD2210205E2BF00047F4F3C
:1005E000D2212021012275F05822E8B4580BE9B439
:1005F0005807EAB45803020700E8B44F0BE9B44FB8
:1006000007EAB44F0302073AEBB4580BECB45807AF
:10061000EDB45803020700EBB44F0BECB44F07EDF9
:10062000B44F0302073AEEB4580CEFB45808E58211
:10063000B45803020700EEB44F0CEFB44F08E58244
:10064000B44F0302073AE8B4580BEBB45807EEB4C2
:100650005803020700E8B44F0BEBB44F07EEB44F5A
:100660000302073AE9B4580BECB45807EFB4580347
:10067000020700E9B44F0BECB44F07EFB44F03028D
:10068000073AEAB4580CEDB45808E582B4580302AE
:100690000700EAB44F0CEDB44F08E582B44F0302F3
:1006A000073AE8B4580CECB45808E582B458030291
:1006B0000700E8B44F0CECB44F08E582B44F0302D6
:1006C000073AEAB4580BECB45807EEB458030207E3
:1006D00000EAB44F0BECB44F07EEB44F0302073AF5
:1006E000E8601CE96019EA6016EB6013EC6010ED3D
:1006F000600DEE600AEF6007E58260030207A72243
:100700001208AD74801208942020097458120888C9
:1007100012076F227459120888744F120888745592
:1007200012088874201208887457120888744F12AF
:100730000888744E12088802076C1208AD74801283
:100740000894202009744F12088812076F22744100
:100750001208887449120888742012088874571285
:100760000888744F120888744E12088802076C7447
:10077000201208887450120888744C12088874413A
:100780001208887459120888744512088874521225
:10079000088874201208887457120888744F120849
:1007A00088744E120888221208AD7480120894745E
:1007B00044120888745212088874411208887457C9
:1007C0001208880207C31208AD7480120894744995
:1007D000120888744E1208887456120888744112E0
:1007E0000888744C120888744912088874441208E6
:1007F000881208A01208A0221208AD748012089472
:1008000020202674541208887455120888745212D5
:100810000888744E120888743A12088874201208E6
:1008200088E5F0120888020881E5F0B44F2674418B
:1008300012088874491208887420120888745412A7
:10084000088874551208887452120888744E120869
:10085000880208817459120888744F1208887455E8
:10086000120888745212088874201208887454126E
:10087000088874551208887452120888744E120839
:10088000881208A01208A022F590D2A0D2A21208C5
:10089000A0C2A222F590C2A0D2A21208A0C2A22297
:1008A00075316E753296D532FDD531F7227401124D
:1008B00008947406120894221208AD7480120894E9
:1008C00012090BE8120888120916E91208881209A1
:1008D00016EA12088874C012089412090BEB120869
:1008E00088120916EC120888120916ED12088812EF
:1008F000090B7420120888EE120888120916EF12EC
:100900000888120916E582120888227420120888C5
:1009100074201208882212090B747C1208881209AC
:020920000B22A8
:00000001FF
